{
    "_format": "hh-sol-artifact-1",
    "contractName": "EtherTransfer",
    "sourceName": "contracts/EtherTransfer.sol",
    "abi": [
        {
            "inputs": [],
            "stateMutability": "nonpayable",
            "type": "constructor"
        },
        {
            "anonymous": false,
            "inputs": [
                {
                    "components": [
                        {
                            "internalType": "address",
                            "name": "from",
                            "type": "address"
                        },
                        {
                            "internalType": "address",
                            "name": "to",
                            "type": "address"
                        },
                        {
                            "internalType": "uint256",
                            "name": "amount",
                            "type": "uint256"
                        },
                        {
                            "internalType": "string",
                            "name": "keyword",
                            "type": "string"
                        },
                        {
                            "internalType": "string",
                            "name": "message",
                            "type": "string"
                        },
                        {
                            "internalType": "uint256",
                            "name": "timestamp",
                            "type": "uint256"
                        }
                    ],
                    "indexed": false,
                    "internalType": "struct EtherTransfer.Transaction",
                    "name": "",
                    "type": "tuple"
                }
            ],
            "name": "EthTransfer",
            "type": "event"
        },
        {
            "inputs": [
                {
                    "internalType": "uint256",
                    "name": "amount",
                    "type": "uint256"
                }
            ],
            "name": "deductTransactionFee",
            "outputs": [
                {
                    "internalType": "uint256",
                    "name": "",
                    "type": "uint256"
                }
            ],
            "stateMutability": "view",
            "type": "function"
        },
        {
            "inputs": [],
            "name": "deposit",
            "outputs": [],
            "stateMutability": "payable",
            "type": "function"
        },
        {
            "inputs": [],
            "name": "getBalance",
            "outputs": [
                {
                    "internalType": "uint256",
                    "name": "",
                    "type": "uint256"
                }
            ],
            "stateMutability": "view",
            "type": "function"
        },
        {
            "inputs": [],
            "name": "getTotalTransactions",
            "outputs": [
                {
                    "internalType": "uint256",
                    "name": "",
                    "type": "uint256"
                }
            ],
            "stateMutability": "view",
            "type": "function"
        },
        {
            "inputs": [
                {
                    "internalType": "address payable",
                    "name": "reciever",
                    "type": "address"
                },
                {
                    "internalType": "string",
                    "name": "keyword",
                    "type": "string"
                },
                {
                    "internalType": "string",
                    "name": "message",
                    "type": "string"
                }
            ],
            "name": "sendEther",
            "outputs": [],
            "stateMutability": "payable",
            "type": "function"
        },
        {
            "inputs": [],
            "name": "sendPrizeAmount",
            "outputs": [],
            "stateMutability": "payable",
            "type": "function"
        }
    ],
    "bytecode": "0x608060405260008055655af3107a400060025534801561001e57600080fd5b5033600160006101000a81548173ffffffffffffffffffffffffffffffffffffffff021916908373ffffffffffffffffffffffffffffffffffffffff160217905550610a198061006f6000396000f3fe6080604052600436106100555760003560e01c806312065fe01461005a5780632ced4919146100855780638737a03f146100c2578063b5c604ff146100de578063d0e30db014610109578063dd200fb214610113575b600080fd5b34801561006657600080fd5b5061006f61011d565b60405161007c91906103a5565b60405180910390f35b34801561009157600080fd5b506100ac60048036038101906100a79190610400565b610125565b6040516100b991906103a5565b60405180910390f35b6100dc60048036038101906100d791906105d1565b61013c565b005b3480156100ea57600080fd5b506100f3610256565b60405161010091906103a5565b60405180910390f35b61011161025f565b005b61011b610261565b005b600047905090565b600060025482610135919061068b565b9050919050565b60003373ffffffffffffffffffffffffffffffffffffffff163111610196576040517f08c379a000000000000000000000000000000000000000000000000000000000815260040161018d9061071c565b60405180910390fd5b61019f836102ce565b60016000546101ae919061073c565b60008190555060006040518060c001604052803373ffffffffffffffffffffffffffffffffffffffff1681526020018573ffffffffffffffffffffffffffffffffffffffff1681526020013481526020018481526020018381526020014281525090507f659c5163208205647c1801435b1b998617c929d2720e96df4f3dd228c6d789cf8160405161024091906108af565b60405180910390a1610250610261565b50505050565b60008054905090565b565b600060146000546102729190610900565b036102cc5760003390508073ffffffffffffffffffffffffffffffffffffffff166108fc662386f26fc100009081150290604051600060405180830381858888f193505050501580156102c9573d6000803e3d6000fd5b50505b565b60006102d934610125565b905060008273ffffffffffffffffffffffffffffffffffffffff168260405161030190610962565b60006040518083038185875af1925050503d806000811461033e576040519150601f19603f3d011682016040523d82523d6000602084013e610343565b606091505b5050905080610387576040517f08c379a000000000000000000000000000000000000000000000000000000000815260040161037e906109c3565b60405180910390fd5b505050565b6000819050919050565b61039f8161038c565b82525050565b60006020820190506103ba6000830184610396565b92915050565b6000604051905090565b600080fd5b600080fd5b6103dd8161038c565b81146103e857600080fd5b50565b6000813590506103fa816103d4565b92915050565b600060208284031215610416576104156103ca565b5b6000610424848285016103eb565b91505092915050565b600073ffffffffffffffffffffffffffffffffffffffff82169050919050565b60006104588261042d565b9050919050565b6104688161044d565b811461047357600080fd5b50565b6000813590506104858161045f565b92915050565b600080fd5b600080fd5b6000601f19601f8301169050919050565b7f4e487b7100000000000000000000000000000000000000000000000000000000600052604160045260246000fd5b6104de82610495565b810181811067ffffffffffffffff821117156104fd576104fc6104a6565b5b80604052505050565b60006105106103c0565b905061051c82826104d5565b919050565b600067ffffffffffffffff82111561053c5761053b6104a6565b5b61054582610495565b9050602081019050919050565b82818337600083830152505050565b600061057461056f84610521565b610506565b9050828152602081018484840111156105905761058f610490565b5b61059b848285610552565b509392505050565b600082601f8301126105b8576105b761048b565b5b81356105c8848260208601610561565b91505092915050565b6000806000606084860312156105ea576105e96103ca565b5b60006105f886828701610476565b935050602084013567ffffffffffffffff811115610619576106186103cf565b5b610625868287016105a3565b925050604084013567ffffffffffffffff811115610646576106456103cf565b5b610652868287016105a3565b9150509250925092565b7f4e487b7100000000000000000000000000000000000000000000000000000000600052601160045260246000fd5b60006106968261038c565b91506106a18361038c565b92508282039050818111156106b9576106b861065c565b5b92915050565b600082825260208201905092915050565b7f496e73756666696369656e742042616c616e6365000000000000000000000000600082015250565b60006107066014836106bf565b9150610711826106d0565b602082019050919050565b60006020820190508181036000830152610735816106f9565b9050919050565b60006107478261038c565b91506107528361038c565b925082820190508082111561076a5761076961065c565b5b92915050565b600061077b8261042d565b9050919050565b61078b81610770565b82525050565b61079a8161038c565b82525050565b600081519050919050565b600082825260208201905092915050565b60005b838110156107da5780820151818401526020810190506107bf565b60008484015250505050565b60006107f1826107a0565b6107fb81856107ab565b935061080b8185602086016107bc565b61081481610495565b840191505092915050565b600060c0830160008301516108376000860182610782565b50602083015161084a6020860182610782565b50604083015161085d6040860182610791565b506060830151848203606086015261087582826107e6565b9150506080830151848203608086015261088f82826107e6565b91505060a08301516108a460a0860182610791565b508091505092915050565b600060208201905081810360008301526108c9818461081f565b905092915050565b7f4e487b7100000000000000000000000000000000000000000000000000000000600052601260045260246000fd5b600061090b8261038c565b91506109168361038c565b925082610926576109256108d1565b5b828206905092915050565b600081905092915050565b50565b600061094c600083610931565b91506109578261093c565b600082019050919050565b600061096d8261093f565b9150819050919050565b7f4661696c656420746f2073656e64204574686572000000000000000000000000600082015250565b60006109ad6014836106bf565b91506109b882610977565b602082019050919050565b600060208201905081810360008301526109dc816109a0565b905091905056fea2646970667358221220effca801c98a60981e47d7ac7b72f7188837fcb9153f3f212011ed2e99147a8064736f6c63430008110033",
    "linkReferences": {},
    "deployedLinkReferences": {}
}