{
    "_format": "hh-sol-artifact-1",
    "contractName": "EtherTransfer",
    "sourceName": "contracts/EtherTransfer.sol",
    "abi": [
        {
            "anonymous": false,
            "inputs": [
                {
                    "components": [
                        {
                            "internalType": "address",
                            "name": "from",
                            "type": "address"
                        },
                        {
                            "internalType": "address",
                            "name": "to",
                            "type": "address"
                        },
                        {
                            "internalType": "uint256",
                            "name": "amount",
                            "type": "uint256"
                        },
                        {
                            "internalType": "string",
                            "name": "keyword",
                            "type": "string"
                        },
                        {
                            "internalType": "string",
                            "name": "message",
                            "type": "string"
                        },
                        {
                            "internalType": "uint256",
                            "name": "timestamp",
                            "type": "uint256"
                        }
                    ],
                    "indexed": false,
                    "internalType": "struct EtherTransfer.Transaction",
                    "name": "",
                    "type": "tuple"
                }
            ],
            "name": "EthTransfer",
            "type": "event"
        },
        {
            "inputs": [
                {
                    "internalType": "address payable",
                    "name": "reciever",
                    "type": "address"
                },
                {
                    "internalType": "string",
                    "name": "keyword",
                    "type": "string"
                },
                {
                    "internalType": "string",
                    "name": "message",
                    "type": "string"
                }
            ],
            "name": "sendEther",
            "outputs": [],
            "stateMutability": "payable",
            "type": "function"
        }
    ],
    "bytecode": "0x608060405234801561001057600080fd5b506106ff806100206000396000f3fe60806040526004361061001e5760003560e01c80638737a03f14610023575b600080fd5b61003d600480360381019061003891906103a4565b61003f565b005b60003373ffffffffffffffffffffffffffffffffffffffff163111610099576040517f08c379a00000000000000000000000000000000000000000000000000000000081526004016100909061048c565b60405180910390fd5b6100a28361013c565b60006040518060c001604052803373ffffffffffffffffffffffffffffffffffffffff1681526020018573ffffffffffffffffffffffffffffffffffffffff1681526020013481526020018481526020018381526020014281525090507f659c5163208205647c1801435b1b998617c929d2720e96df4f3dd228c6d789cf8160405161012e91906105f5565b60405180910390a150505050565b60008173ffffffffffffffffffffffffffffffffffffffff163460405161016290610648565b60006040518083038185875af1925050503d806000811461019f576040519150601f19603f3d011682016040523d82523d6000602084013e6101a4565b606091505b50509050806101e8576040517f08c379a00000000000000000000000000000000000000000000000000000000081526004016101df906106a9565b60405180910390fd5b5050565b6000604051905090565b600080fd5b600080fd5b600073ffffffffffffffffffffffffffffffffffffffff82169050919050565b600061022b82610200565b9050919050565b61023b81610220565b811461024657600080fd5b50565b60008135905061025881610232565b92915050565b600080fd5b600080fd5b6000601f19601f8301169050919050565b7f4e487b7100000000000000000000000000000000000000000000000000000000600052604160045260246000fd5b6102b182610268565b810181811067ffffffffffffffff821117156102d0576102cf610279565b5b80604052505050565b60006102e36101ec565b90506102ef82826102a8565b919050565b600067ffffffffffffffff82111561030f5761030e610279565b5b61031882610268565b9050602081019050919050565b82818337600083830152505050565b6000610347610342846102f4565b6102d9565b90508281526020810184848401111561036357610362610263565b5b61036e848285610325565b509392505050565b600082601f83011261038b5761038a61025e565b5b813561039b848260208601610334565b91505092915050565b6000806000606084860312156103bd576103bc6101f6565b5b60006103cb86828701610249565b935050602084013567ffffffffffffffff8111156103ec576103eb6101fb565b5b6103f886828701610376565b925050604084013567ffffffffffffffff811115610419576104186101fb565b5b61042586828701610376565b9150509250925092565b600082825260208201905092915050565b7f496e73756666696369656e742042616c616e6365000000000000000000000000600082015250565b600061047660148361042f565b915061048182610440565b602082019050919050565b600060208201905081810360008301526104a581610469565b9050919050565b60006104b782610200565b9050919050565b6104c7816104ac565b82525050565b6000819050919050565b6104e0816104cd565b82525050565b600081519050919050565b600082825260208201905092915050565b60005b83811015610520578082015181840152602081019050610505565b60008484015250505050565b6000610537826104e6565b61054181856104f1565b9350610551818560208601610502565b61055a81610268565b840191505092915050565b600060c08301600083015161057d60008601826104be565b50602083015161059060208601826104be565b5060408301516105a360408601826104d7565b50606083015184820360608601526105bb828261052c565b915050608083015184820360808601526105d5828261052c565b91505060a08301516105ea60a08601826104d7565b508091505092915050565b6000602082019050818103600083015261060f8184610565565b905092915050565b600081905092915050565b50565b6000610632600083610617565b915061063d82610622565b600082019050919050565b600061065382610625565b9150819050919050565b7f4661696c656420746f2073656e64204574686572000000000000000000000000600082015250565b600061069360148361042f565b915061069e8261065d565b602082019050919050565b600060208201905081810360008301526106c281610686565b905091905056fea2646970667358221220f9fd5b73c7a4c32a058021ec7b9acd48aafae077546e55d9b6564d1f46ae655564736f6c63430008110033",
    "linkReferences": {},
    "deployedLinkReferences": {}
}