{
  "_format": "hh-sol-artifact-1",
  "contractName": "EtherTransfer",
  "sourceName": "contracts/EtherTransfer.sol",
  "abi": [
    {
      "inputs": [],
      "stateMutability": "nonpayable",
      "type": "constructor"
    },
    {
      "anonymous": false,
      "inputs": [
        {
          "components": [
            {
              "internalType": "address",
              "name": "from",
              "type": "address"
            },
            {
              "internalType": "address",
              "name": "to",
              "type": "address"
            },
            {
              "internalType": "uint256",
              "name": "amount",
              "type": "uint256"
            },
            {
              "internalType": "string",
              "name": "keyword",
              "type": "string"
            },
            {
              "internalType": "string",
              "name": "message",
              "type": "string"
            },
            {
              "internalType": "uint256",
              "name": "timestamp",
              "type": "uint256"
            }
          ],
          "indexed": false,
          "internalType": "struct EtherTransfer.Transaction",
          "name": "",
          "type": "tuple"
        }
      ],
      "name": "EthTransfer",
      "type": "event"
    },
    {
      "inputs": [
        {
          "internalType": "uint256",
          "name": "amount",
          "type": "uint256"
        }
      ],
      "name": "deductTransactionFee",
      "outputs": [
        {
          "internalType": "uint256",
          "name": "",
          "type": "uint256"
        }
      ],
      "stateMutability": "view",
      "type": "function"
    },
    {
      "inputs": [],
      "name": "deposit",
      "outputs": [],
      "stateMutability": "payable",
      "type": "function"
    },
    {
      "inputs": [],
      "name": "getBalance",
      "outputs": [
        {
          "internalType": "uint256",
          "name": "",
          "type": "uint256"
        }
      ],
      "stateMutability": "view",
      "type": "function"
    },
    {
      "inputs": [],
      "name": "getTotalTransactions",
      "outputs": [
        {
          "internalType": "uint256",
          "name": "",
          "type": "uint256"
        }
      ],
      "stateMutability": "view",
      "type": "function"
    },
    {
      "inputs": [],
      "name": "retrieveFee",
      "outputs": [],
      "stateMutability": "payable",
      "type": "function"
    },
    {
      "inputs": [
        {
          "internalType": "address payable",
          "name": "reciever",
          "type": "address"
        },
        {
          "internalType": "string",
          "name": "keyword",
          "type": "string"
        },
        {
          "internalType": "string",
          "name": "message",
          "type": "string"
        }
      ],
      "name": "sendEther",
      "outputs": [],
      "stateMutability": "payable",
      "type": "function"
    },
    {
      "inputs": [],
      "name": "sendPrizeAmount",
      "outputs": [],
      "stateMutability": "payable",
      "type": "function"
    }
  ],
  "bytecode": "0x608060405260008055655af3107a4000600255660e35fa931a000060035534801561002957600080fd5b5033600160006101000a81548173ffffffffffffffffffffffffffffffffffffffff021916908373ffffffffffffffffffffffffffffffffffffffff160217905550610d2b8061007a6000396000f3fe6080604052600436106100705760003560e01c80638c4b47a11161004e5780638c4b47a1146100f9578063b5c604ff14610103578063d0e30db01461012e578063dd200fb21461013857610070565b806312065fe0146100755780632ced4919146100a05780638737a03f146100dd575b600080fd5b34801561008157600080fd5b5061008a610142565b604051610097919061054d565b60405180910390f35b3480156100ac57600080fd5b506100c760048036038101906100c291906105a8565b61014a565b6040516100d4919061054d565b60405180910390f35b6100f760048036038101906100f29190610779565b610161565b005b6101016102dc565b005b34801561010f57600080fd5b50610118610403565b604051610125919061054d565b60405180910390f35b61013661040c565b005b61014061040e565b005b600047905090565b60006002548261015a9190610833565b9050919050565b60003373ffffffffffffffffffffffffffffffffffffffff1631116101bb576040517f08c379a00000000000000000000000000000000000000000000000000000000081526004016101b2906108c4565b60405180910390fd5b65b5e620f48000341015610204576040517f08c379a00000000000000000000000000000000000000000000000000000000081526004016101fb90610930565b60405180910390fd5b61020d83610476565b600160005461021c9190610950565b60008190555060006040518060c001604052803373ffffffffffffffffffffffffffffffffffffffff1681526020018573ffffffffffffffffffffffffffffffffffffffff1681526020013481526020018481526020018381526020014281525090507f659c5163208205647c1801435b1b998617c929d2720e96df4f3dd228c6d789cf816040516102ae9190610ac3565b60405180910390a16102be61040e565b674563918244f4000047106102d6576102d56102dc565b5b50505050565b6000600354476102ec9190610833565b905060008111610331576040517f08c379a000000000000000000000000000000000000000000000000000000000815260040161032890610b31565b60405180910390fd5b6000600160009054906101000a900473ffffffffffffffffffffffffffffffffffffffff1673ffffffffffffffffffffffffffffffffffffffff168260405161037990610b82565b60006040518083038185875af1925050503d80600081146103b6576040519150601f19603f3d011682016040523d82523d6000602084013e6103bb565b606091505b50509050806103ff576040517f08c379a00000000000000000000000000000000000000000000000000000000081526004016103f690610c09565b60405180910390fd5b5050565b60008054905090565b565b6000601460005461041f9190610c58565b036104745760003390508073ffffffffffffffffffffffffffffffffffffffff166108fc6003549081150290604051600060405180830381858888f19350505050158015610471573d6000803e3d6000fd5b50505b565b60006104813461014a565b905060008273ffffffffffffffffffffffffffffffffffffffff16826040516104a990610b82565b60006040518083038185875af1925050503d80600081146104e6576040519150601f19603f3d011682016040523d82523d6000602084013e6104eb565b606091505b505090508061052f576040517f08c379a000000000000000000000000000000000000000000000000000000000815260040161052690610cd5565b60405180910390fd5b505050565b6000819050919050565b61054781610534565b82525050565b6000602082019050610562600083018461053e565b92915050565b6000604051905090565b600080fd5b600080fd5b61058581610534565b811461059057600080fd5b50565b6000813590506105a28161057c565b92915050565b6000602082840312156105be576105bd610572565b5b60006105cc84828501610593565b91505092915050565b600073ffffffffffffffffffffffffffffffffffffffff82169050919050565b6000610600826105d5565b9050919050565b610610816105f5565b811461061b57600080fd5b50565b60008135905061062d81610607565b92915050565b600080fd5b600080fd5b6000601f19601f8301169050919050565b7f4e487b7100000000000000000000000000000000000000000000000000000000600052604160045260246000fd5b6106868261063d565b810181811067ffffffffffffffff821117156106a5576106a461064e565b5b80604052505050565b60006106b8610568565b90506106c4828261067d565b919050565b600067ffffffffffffffff8211156106e4576106e361064e565b5b6106ed8261063d565b9050602081019050919050565b82818337600083830152505050565b600061071c610717846106c9565b6106ae565b90508281526020810184848401111561073857610737610638565b5b6107438482856106fa565b509392505050565b600082601f8301126107605761075f610633565b5b8135610770848260208601610709565b91505092915050565b60008060006060848603121561079257610791610572565b5b60006107a08682870161061e565b935050602084013567ffffffffffffffff8111156107c1576107c0610577565b5b6107cd8682870161074b565b925050604084013567ffffffffffffffff8111156107ee576107ed610577565b5b6107fa8682870161074b565b9150509250925092565b7f4e487b7100000000000000000000000000000000000000000000000000000000600052601160045260246000fd5b600061083e82610534565b915061084983610534565b925082820390508181111561086157610860610804565b5b92915050565b600082825260208201905092915050565b7f496e73756666696369656e742042616c616e6365000000000000000000000000600082015250565b60006108ae601483610867565b91506108b982610878565b602082019050919050565b600060208201905081810360008301526108dd816108a1565b9050919050565b7f56657279206c6f77206574686572207472616e73666572000000000000000000600082015250565b600061091a601783610867565b9150610925826108e4565b602082019050919050565b600060208201905081810360008301526109498161090d565b9050919050565b600061095b82610534565b915061096683610534565b925082820190508082111561097e5761097d610804565b5b92915050565b600061098f826105d5565b9050919050565b61099f81610984565b82525050565b6109ae81610534565b82525050565b600081519050919050565b600082825260208201905092915050565b60005b838110156109ee5780820151818401526020810190506109d3565b60008484015250505050565b6000610a05826109b4565b610a0f81856109bf565b9350610a1f8185602086016109d0565b610a288161063d565b840191505092915050565b600060c083016000830151610a4b6000860182610996565b506020830151610a5e6020860182610996565b506040830151610a7160408601826109a5565b5060608301518482036060860152610a8982826109fa565b91505060808301518482036080860152610aa382826109fa565b91505060a0830151610ab860a08601826109a5565b508091505092915050565b60006020820190508181036000830152610add8184610a33565b905092915050565b7f4c6f7720636f6e74726163742062616c616e63652e0000000000000000000000600082015250565b6000610b1b601583610867565b9150610b2682610ae5565b602082019050919050565b60006020820190508181036000830152610b4a81610b0e565b9050919050565b600081905092915050565b50565b6000610b6c600083610b51565b9150610b7782610b5c565b600082019050919050565b6000610b8d82610b5f565b9150819050919050565b7f4661696c656420746f207265747269657665206665652066726f6d20636f6e7460008201527f726163742e000000000000000000000000000000000000000000000000000000602082015250565b6000610bf3602583610867565b9150610bfe82610b97565b604082019050919050565b60006020820190508181036000830152610c2281610be6565b9050919050565b7f4e487b7100000000000000000000000000000000000000000000000000000000600052601260045260246000fd5b6000610c6382610534565b9150610c6e83610534565b925082610c7e57610c7d610c29565b5b828206905092915050565b7f4661696c656420746f2073656e64204574686572000000000000000000000000600082015250565b6000610cbf601483610867565b9150610cca82610c89565b602082019050919050565b60006020820190508181036000830152610cee81610cb2565b905091905056fea2646970667358221220dfca741d815417e0990ac1f45a7b48ada8c9f9b572179774a2eef400dbe2263f64736f6c63430008110033",
  "linkReferences": {},
  "deployedLinkReferences": {}
}