{
    "_format": "hh-sol-artifact-1",
    "contractName": "EtherTransfer",
    "sourceName": "contracts/EtherTransfer.sol",
    "abi": [
        {
            "anonymous": false,
            "inputs": [
                {
                    "components": [
                        {
                            "internalType": "address",
                            "name": "from",
                            "type": "address"
                        },
                        {
                            "internalType": "address",
                            "name": "to",
                            "type": "address"
                        },
                        {
                            "internalType": "uint256",
                            "name": "amount",
                            "type": "uint256"
                        },
                        {
                            "internalType": "string",
                            "name": "keywork",
                            "type": "string"
                        },
                        {
                            "internalType": "string",
                            "name": "message",
                            "type": "string"
                        }
                    ],
                    "indexed": false,
                    "internalType": "struct EtherTransfer.Transaction",
                    "name": "",
                    "type": "tuple"
                }
            ],
            "name": "EthTransfer",
            "type": "event"
        },
        {
            "inputs": [
                {
                    "internalType": "address payable",
                    "name": "reciever",
                    "type": "address"
                },
                {
                    "internalType": "string",
                    "name": "keyword",
                    "type": "string"
                },
                {
                    "internalType": "string",
                    "name": "message",
                    "type": "string"
                }
            ],
            "name": "sendEther",
            "outputs": [],
            "stateMutability": "payable",
            "type": "function"
        }
    ],
    "bytecode": "0x608060405234801561001057600080fd5b50610ab6806100206000396000f3fe60806040526004361061001e5760003560e01c80638737a03f14610023575b600080fd5b61003d60048036038101906100389190610490565b61003f565b005b60003373ffffffffffffffffffffffffffffffffffffffff163111610099576040517f08c379a000000000000000000000000000000000000000000000000000000000815260040161009090610578565b60405180910390fd5b6100a283610228565b60006040518060a001604052803373ffffffffffffffffffffffffffffffffffffffff1681526020018573ffffffffffffffffffffffffffffffffffffffff168152602001348152602001848152602001838152509050600081908060018154018082558091505060019003906000526020600020906005020160009091909190915060008201518160000160006101000a81548173ffffffffffffffffffffffffffffffffffffffff021916908373ffffffffffffffffffffffffffffffffffffffff16021790555060208201518160010160006101000a81548173ffffffffffffffffffffffffffffffffffffffff021916908373ffffffffffffffffffffffffffffffffffffffff1602179055506040820151816002015560608201518160030190816101d291906107b9565b5060808201518160040190816101e891906107b9565b5050507f8f74763d9de6f093c180b56764b619288466efd8439f73a838614723bd99bbc18160405161021a91906109ac565b60405180910390a150505050565b60008173ffffffffffffffffffffffffffffffffffffffff163460405161024e906109ff565b60006040518083038185875af1925050503d806000811461028b576040519150601f19603f3d011682016040523d82523d6000602084013e610290565b606091505b50509050806102d4576040517f08c379a00000000000000000000000000000000000000000000000000000000081526004016102cb90610a60565b60405180910390fd5b5050565b6000604051905090565b600080fd5b600080fd5b600073ffffffffffffffffffffffffffffffffffffffff82169050919050565b6000610317826102ec565b9050919050565b6103278161030c565b811461033257600080fd5b50565b6000813590506103448161031e565b92915050565b600080fd5b600080fd5b6000601f19601f8301169050919050565b7f4e487b7100000000000000000000000000000000000000000000000000000000600052604160045260246000fd5b61039d82610354565b810181811067ffffffffffffffff821117156103bc576103bb610365565b5b80604052505050565b60006103cf6102d8565b90506103db8282610394565b919050565b600067ffffffffffffffff8211156103fb576103fa610365565b5b61040482610354565b9050602081019050919050565b82818337600083830152505050565b600061043361042e846103e0565b6103c5565b90508281526020810184848401111561044f5761044e61034f565b5b61045a848285610411565b509392505050565b600082601f8301126104775761047661034a565b5b8135610487848260208601610420565b91505092915050565b6000806000606084860312156104a9576104a86102e2565b5b60006104b786828701610335565b935050602084013567ffffffffffffffff8111156104d8576104d76102e7565b5b6104e486828701610462565b925050604084013567ffffffffffffffff811115610505576105046102e7565b5b61051186828701610462565b9150509250925092565b600082825260208201905092915050565b7f496e73756666696369656e742042616c616e6365000000000000000000000000600082015250565b600061056260148361051b565b915061056d8261052c565b602082019050919050565b6000602082019050818103600083015261059181610555565b9050919050565b600081519050919050565b7f4e487b7100000000000000000000000000000000000000000000000000000000600052602260045260246000fd5b600060028204905060018216806105ea57607f821691505b6020821081036105fd576105fc6105a3565b5b50919050565b60008190508160005260206000209050919050565b60006020601f8301049050919050565b600082821b905092915050565b6000600883026106657fffffffffffffffffffffffffffffffffffffffffffffffffffffffffffffffff82610628565b61066f8683610628565b95508019841693508086168417925050509392505050565b6000819050919050565b6000819050919050565b60006106b66106b16106ac84610687565b610691565b610687565b9050919050565b6000819050919050565b6106d08361069b565b6106e46106dc826106bd565b848454610635565b825550505050565b600090565b6106f96106ec565b6107048184846106c7565b505050565b5b818110156107285761071d6000826106f1565b60018101905061070a565b5050565b601f82111561076d5761073e81610603565b61074784610618565b81016020851015610756578190505b61076a61076285610618565b830182610709565b50505b505050565b600082821c905092915050565b600061079060001984600802610772565b1980831691505092915050565b60006107a9838361077f565b9150826002028217905092915050565b6107c282610598565b67ffffffffffffffff8111156107db576107da610365565b5b6107e582546105d2565b6107f082828561072c565b600060209050601f8311600181146108235760008415610811578287015190505b61081b858261079d565b865550610883565b601f19841661083186610603565b60005b8281101561085957848901518255600182019150602085019450602081019050610834565b868310156108765784890151610872601f89168261077f565b8355505b6001600288020188555050505b505050505050565b6000610896826102ec565b9050919050565b6108a68161088b565b82525050565b6108b581610687565b82525050565b600082825260208201905092915050565b60005b838110156108ea5780820151818401526020810190506108cf565b60008484015250505050565b600061090182610598565b61090b81856108bb565b935061091b8185602086016108cc565b61092481610354565b840191505092915050565b600060a083016000830151610947600086018261089d565b50602083015161095a602086018261089d565b50604083015161096d60408601826108ac565b506060830151848203606086015261098582826108f6565b9150506080830151848203608086015261099f82826108f6565b9150508091505092915050565b600060208201905081810360008301526109c6818461092f565b905092915050565b600081905092915050565b50565b60006109e96000836109ce565b91506109f4826109d9565b600082019050919050565b6000610a0a826109dc565b9150819050919050565b7f4661696c656420746f2073656e64204574686572000000000000000000000000600082015250565b6000610a4a60148361051b565b9150610a5582610a14565b602082019050919050565b60006020820190508181036000830152610a7981610a3d565b905091905056fea26469706673582212201849be4c212904710865ce9243301fad25c0769fd86a933259dc543572921d3a64736f6c63430008110033",
    "linkReferences": {},
    "deployedLinkReferences": {}
}