{
    "_format": "hh-sol-artifact-1",
    "contractName": "EtherTransfer",
    "sourceName": "contracts/EtherTransfer.sol",
    "abi": [
        {
            "inputs": [],
            "stateMutability": "nonpayable",
            "type": "constructor"
        },
        {
            "anonymous": false,
            "inputs": [
                {
                    "components": [
                        {
                            "internalType": "address",
                            "name": "from",
                            "type": "address"
                        },
                        {
                            "internalType": "address",
                            "name": "to",
                            "type": "address"
                        },
                        {
                            "internalType": "uint256",
                            "name": "amount",
                            "type": "uint256"
                        },
                        {
                            "internalType": "string",
                            "name": "keyword",
                            "type": "string"
                        },
                        {
                            "internalType": "string",
                            "name": "message",
                            "type": "string"
                        },
                        {
                            "internalType": "uint256",
                            "name": "timestamp",
                            "type": "uint256"
                        }
                    ],
                    "indexed": false,
                    "internalType": "struct EtherTransfer.Transaction",
                    "name": "",
                    "type": "tuple"
                }
            ],
            "name": "EthTransfer",
            "type": "event"
        },
        {
            "inputs": [
                {
                    "internalType": "uint256",
                    "name": "amount",
                    "type": "uint256"
                }
            ],
            "name": "deductTransactionFee",
            "outputs": [
                {
                    "internalType": "uint256",
                    "name": "",
                    "type": "uint256"
                }
            ],
            "stateMutability": "view",
            "type": "function"
        },
        {
            "inputs": [],
            "name": "deposit",
            "outputs": [],
            "stateMutability": "payable",
            "type": "function"
        },
        {
            "inputs": [],
            "name": "getBalance",
            "outputs": [
                {
                    "internalType": "uint256",
                    "name": "",
                    "type": "uint256"
                }
            ],
            "stateMutability": "view",
            "type": "function"
        },
        {
            "inputs": [],
            "name": "getTotalTransactions",
            "outputs": [
                {
                    "internalType": "uint256",
                    "name": "",
                    "type": "uint256"
                }
            ],
            "stateMutability": "view",
            "type": "function"
        },
        {
            "inputs": [],
            "name": "retrieveFee",
            "outputs": [],
            "stateMutability": "payable",
            "type": "function"
        },
        {
            "inputs": [
                {
                    "internalType": "address payable",
                    "name": "reciever",
                    "type": "address"
                },
                {
                    "internalType": "string",
                    "name": "keyword",
                    "type": "string"
                },
                {
                    "internalType": "string",
                    "name": "message",
                    "type": "string"
                }
            ],
            "name": "sendEther",
            "outputs": [],
            "stateMutability": "payable",
            "type": "function"
        },
        {
            "inputs": [],
            "name": "sendPrizeAmount",
            "outputs": [],
            "stateMutability": "payable",
            "type": "function"
        }
    ],
    "bytecode": "0x608060405260008055655af3107a400060025534801561001e57600080fd5b5033600160006101000a81548173ffffffffffffffffffffffffffffffffffffffff021916908373ffffffffffffffffffffffffffffffffffffffff160217905550610d1c8061006f6000396000f3fe6080604052600436106100705760003560e01c80638c4b47a11161004e5780638c4b47a1146100f9578063b5c604ff14610103578063d0e30db01461012e578063dd200fb21461013857610070565b806312065fe0146100755780632ced4919146100a05780638737a03f146100dd575b600080fd5b34801561008157600080fd5b5061008a610142565b604051610097919061053e565b60405180910390f35b3480156100ac57600080fd5b506100c760048036038101906100c29190610599565b61014a565b6040516100d4919061053e565b60405180910390f35b6100f760048036038101906100f2919061076a565b610161565b005b6101016102c4565b005b34801561010f57600080fd5b506101186103ef565b604051610125919061053e565b60405180910390f35b6101366103f8565b005b6101406103fa565b005b600047905090565b60006002548261015a9190610824565b9050919050565b60003373ffffffffffffffffffffffffffffffffffffffff1631116101bb576040517f08c379a00000000000000000000000000000000000000000000000000000000081526004016101b2906108b5565b60405180910390fd5b65b5e620f48000341015610204576040517f08c379a00000000000000000000000000000000000000000000000000000000081526004016101fb90610921565b60405180910390fd5b61020d83610467565b600160005461021c9190610941565b60008190555060006040518060c001604052803373ffffffffffffffffffffffffffffffffffffffff1681526020018573ffffffffffffffffffffffffffffffffffffffff1681526020013481526020018481526020018381526020014281525090507f659c5163208205647c1801435b1b998617c929d2720e96df4f3dd228c6d789cf816040516102ae9190610ab4565b60405180910390a16102be6103fa565b50505050565b6000655af3107a4000476102d89190610824565b90506000811161031d576040517f08c379a000000000000000000000000000000000000000000000000000000000815260040161031490610b22565b60405180910390fd5b6000600160009054906101000a900473ffffffffffffffffffffffffffffffffffffffff1673ffffffffffffffffffffffffffffffffffffffff168260405161036590610b73565b60006040518083038185875af1925050503d80600081146103a2576040519150601f19603f3d011682016040523d82523d6000602084013e6103a7565b606091505b50509050806103eb576040517f08c379a00000000000000000000000000000000000000000000000000000000081526004016103e290610bfa565b60405180910390fd5b5050565b60008054905090565b565b6000601460005461040b9190610c49565b036104655760003390508073ffffffffffffffffffffffffffffffffffffffff166108fc662386f26fc100009081150290604051600060405180830381858888f19350505050158015610462573d6000803e3d6000fd5b50505b565b60006104723461014a565b905060008273ffffffffffffffffffffffffffffffffffffffff168260405161049a90610b73565b60006040518083038185875af1925050503d80600081146104d7576040519150601f19603f3d011682016040523d82523d6000602084013e6104dc565b606091505b5050905080610520576040517f08c379a000000000000000000000000000000000000000000000000000000000815260040161051790610cc6565b60405180910390fd5b505050565b6000819050919050565b61053881610525565b82525050565b6000602082019050610553600083018461052f565b92915050565b6000604051905090565b600080fd5b600080fd5b61057681610525565b811461058157600080fd5b50565b6000813590506105938161056d565b92915050565b6000602082840312156105af576105ae610563565b5b60006105bd84828501610584565b91505092915050565b600073ffffffffffffffffffffffffffffffffffffffff82169050919050565b60006105f1826105c6565b9050919050565b610601816105e6565b811461060c57600080fd5b50565b60008135905061061e816105f8565b92915050565b600080fd5b600080fd5b6000601f19601f8301169050919050565b7f4e487b7100000000000000000000000000000000000000000000000000000000600052604160045260246000fd5b6106778261062e565b810181811067ffffffffffffffff821117156106965761069561063f565b5b80604052505050565b60006106a9610559565b90506106b5828261066e565b919050565b600067ffffffffffffffff8211156106d5576106d461063f565b5b6106de8261062e565b9050602081019050919050565b82818337600083830152505050565b600061070d610708846106ba565b61069f565b90508281526020810184848401111561072957610728610629565b5b6107348482856106eb565b509392505050565b600082601f83011261075157610750610624565b5b81356107618482602086016106fa565b91505092915050565b60008060006060848603121561078357610782610563565b5b60006107918682870161060f565b935050602084013567ffffffffffffffff8111156107b2576107b1610568565b5b6107be8682870161073c565b925050604084013567ffffffffffffffff8111156107df576107de610568565b5b6107eb8682870161073c565b9150509250925092565b7f4e487b7100000000000000000000000000000000000000000000000000000000600052601160045260246000fd5b600061082f82610525565b915061083a83610525565b9250828203905081811115610852576108516107f5565b5b92915050565b600082825260208201905092915050565b7f496e73756666696369656e742042616c616e6365000000000000000000000000600082015250565b600061089f601483610858565b91506108aa82610869565b602082019050919050565b600060208201905081810360008301526108ce81610892565b9050919050565b7f56657279206c6f77206574686572207472616e73666572000000000000000000600082015250565b600061090b601783610858565b9150610916826108d5565b602082019050919050565b6000602082019050818103600083015261093a816108fe565b9050919050565b600061094c82610525565b915061095783610525565b925082820190508082111561096f5761096e6107f5565b5b92915050565b6000610980826105c6565b9050919050565b61099081610975565b82525050565b61099f81610525565b82525050565b600081519050919050565b600082825260208201905092915050565b60005b838110156109df5780820151818401526020810190506109c4565b60008484015250505050565b60006109f6826109a5565b610a0081856109b0565b9350610a108185602086016109c1565b610a198161062e565b840191505092915050565b600060c083016000830151610a3c6000860182610987565b506020830151610a4f6020860182610987565b506040830151610a626040860182610996565b5060608301518482036060860152610a7a82826109eb565b91505060808301518482036080860152610a9482826109eb565b91505060a0830151610aa960a0860182610996565b508091505092915050565b60006020820190508181036000830152610ace8184610a24565b905092915050565b7f4c6f7720636f6e74726163742062616c616e63652e0000000000000000000000600082015250565b6000610b0c601583610858565b9150610b1782610ad6565b602082019050919050565b60006020820190508181036000830152610b3b81610aff565b9050919050565b600081905092915050565b50565b6000610b5d600083610b42565b9150610b6882610b4d565b600082019050919050565b6000610b7e82610b50565b9150819050919050565b7f4661696c656420746f207265747269657665206665652066726f6d20636f6e7460008201527f726163742e000000000000000000000000000000000000000000000000000000602082015250565b6000610be4602583610858565b9150610bef82610b88565b604082019050919050565b60006020820190508181036000830152610c1381610bd7565b9050919050565b7f4e487b7100000000000000000000000000000000000000000000000000000000600052601260045260246000fd5b6000610c5482610525565b9150610c5f83610525565b925082610c6f57610c6e610c1a565b5b828206905092915050565b7f4661696c656420746f2073656e64204574686572000000000000000000000000600082015250565b6000610cb0601483610858565b9150610cbb82610c7a565b602082019050919050565b60006020820190508181036000830152610cdf81610ca3565b905091905056fea26469706673582212209012d25169498b45e663f3f716b89dbbbde7a39065605a053b486fe6fc78344b64736f6c63430008110033",
    "linkReferences": {},
    "deployedLinkReferences": {}
}